:100000000C9434000C9451000C9451000C94510049
:100010000C9451000C9451000C9451000C9451001C
:100020000C9451000C9451000C9451000C9451000C
:100030000C9451000C9451000C9451000C945100FC
:100040000C9451000C9451000C9486030C94B4034E
:100050000C9451000C9451000C9451000C945100DC
:100060000C9451000C94510011241FBECFEFD8E026
:10007000DEBFCDBF11E0A0E0B1E0EEE0FEE002C0E7
:1000800005900D92A633B107D9F721E0A6E3B1E0C0
:1000900001C01D92AB37B207E1F70E9427010C9413
:1000A00005070C94000088B1846088B900C088B14D
:1000B0008B7F88B90895CF93C82F8AB1806F8AB992
:1000C00088B18D7F88B9662321F088B1816088B9B5
:1000D00003C088B18E7F88B98BB18F709C2F907FC1
:1000E000892B8BB90E9453002BB130E1C39FC00113
:1000F0001124922F9F70892B8BB90E9453008BB1D2
:10010000806F8BB9CF910895882321F088B18160E9
:1001100088B903C088B18E7F88B988B1826088B9F8
:100120008AB18F708AB988B1846088B900C029B15A
:1001300088B18B7F88B900C088B1846088B900C05D
:1001400099B188B18B7F88B9207F892F82958F7074
:10015000822B089580E00E9484008823DCF380E0F5
:100160000E9484000895CF93C82F0E94AA0060E0E7
:100170008C2F0E945B00CF910895803410F480E4AE
:1001800001C080E080580E94B300089581E00E9481
:10019000B3000895CF93C82F0E94AA00CA3019F463
:1001A0000E94BD0004C061E08C2F0E945B00CF91D3
:1001B0000895CF93DF93FC0103C00E94CA00FE01A3
:1001C000EF01219680818111F8CFDF91CF910895C1
:1001D000CF93C82F8AB1806F8AB987B1816087B900
:1001E00088B18E7F88B987B1826087B988B18D7FE9
:1001F00088B987B1846087B988B18B7F88B98BB1A2
:100200008F7080638BB90E9453008BB18F708063B5
:100210008BB90E9453008BB18F7080638BB90E94A1
:1002200053008BB18F7080628BB90E94530088E2BB
:100230000E94B30088E00E94B3000E94C60086E0DE
:100240000E94B3008C2F0E94B300CF910895CF93EA
:10025000DF93CDB7DEB7A5970FB6F894DEBF0FBE1C
:10026000CDBF8CE00E94E8008AB184608AB980E04A
:1002700091E00E94D9002FEF80E792E0215080406A
:100280009040E1F700C0000087E690E00E94DE03A6
:100290000E9479030E94E3010E94C6008CE091E075
:1002A0000E94D9002FEF89E698E1215080409040CC
:1002B000E1F700C000007894BE016F5E7F4F86E2D8
:1002C0000E940803813009F04BC00E94C60086E1FD
:1002D00091E00E94D9002FEF89E698E121508040FB
:1002E0009040E1F700C00000CE0181960E943D03DE
:1002F0008130B1F58BB184608BB94DA13CA12BA1AC
:100300009AA189A11F924F931F923F931F922F93FF
:100310001F929F931F928F9385E291E09F938F93FB
:100320008E010F5F1F4F1F930F930E941B040E94AB
:10033000C600C8010E94D900C8010E940E042FEF18
:1003400081EE94E0215080409040E1F700C0000031
:100350008BB18B7F8BB90FB6F894DEBF0FBECDBFCC
:100360009FEF29E688E1915020408040E1F700C0EE
:100370000000A2CFCF93C62F95B19B7F95B990E097
:10038000880F991F8E770E9480038C2F0E94800314
:1003900085B1846085B9CF91089595B19B7F95B95A
:1003A00090E0880F991F8E7780680E94800380E01C
:1003B0000E94800395B1946095B908956FE081E043
:1003C0000E94BA0108950E94DE016DE88AE20E944F
:1003D000BA016EE38BE20E94BA016EE18CE20E94E8
:1003E000BA0160E08DE20E94BA0160E485E10E94FA
:1003F000BA016DE381E10E94BA0184E10E94CD015E
:10040000982F937029F4682F636084E10E94BA01E9
:1004100008954F925F926F927F928F929F92AF92C8
:10042000BF92CF92DF92EF92FF920F931F93CF93E1
:10043000DF93D82F7B01C42F59018C3029F08E30E7
:1004400061F0912C812C10C00F2EF0E39F2EF02D27
:100450000F2EF7E78F2EF02D07C06894992494F89B
:100460000F2EF2E18F2EF02D84E00E94CD01682F37
:100470006F7784E00E94BA018AE00E94CD01682F64
:1004800060688AE00E94BA0160E081E00E94BA01DF
:10049000412C512C32010CC0F701E40DF51D608197
:1004A00089E00E94BA018FEF481A580A680A780A50
:1004B0008C2F90E0A0E0B0E0481659066A067B0653
:1004C00058F36D2F81E00E94BA01DC3041F48DE0D9
:1004D0000E94CD01682F60688DE00E94BA010F2E46
:1004E000F0EDCF2EF7E0DF2EE12CF12CF02D84E0A3
:1004F0000E94CD01C82FE1E0CE1AD108E108F10831
:1005000029F080FD03C0892D8C2389F38DE00E94A2
:10051000CD01682F6F778DE00E94BA01CD28CE28DB
:10052000CF2809F460C086E00E94CD018B7109F0EC
:100530005CC0C821C0FD02C0C1E001C0C2E0DC3027
:1005400009F054C08AE00E94CD01D82F8CE00E94AF
:10055000CD01282F2770A9F08D2F90E00197880FEB
:10056000991F880F991F880F991F820F911D092EBF
:10057000000CAA0BBB0BF80180839183A283B38389
:1005800011C08D2F90E0880F991F880F991F880F39
:10059000991F092E000CAA0BBB0BF80180839183D5
:1005A000A283B383D11101C0D1E0D13108F0D0E1F1
:1005B000C12CD12C76010DC085010C0D1D1D89E0CB
:1005C0000E94CD01F8018083FFEFCF1ADF0AEF0A06
:1005D000FF0A8D2F90E0A0E0B0E0C816D906EA0629
:1005E000FB0650F303C0C3E001C0C3E08C2FDF91D2
:1005F000CF911F910F91FF90EF90DF90CF90BF9020
:10060000AF909F908F907F906F905F904F900895E4
:10061000EF92FF920F931F93CF93DF9300D000D000
:10062000CDB7DEB7182F7B0167E08DE00E94BA01DD
:10063000F70110838E010F5F1F4F970141E0B70153
:100640008CE00E940902813051F449815A816B810A
:100650007C81403151056105710519F403C083E0C7
:1006600001C083E00F900F900F900F90DF91CF911A
:100670001F910F91FF90EF900895EF92FF920F93CB
:100680001F93CF93DF9300D000D0CDB7DEB77C01AE
:1006900060E08DE00E94BA0183E9F701808380E287
:1006A00081838E010F5F1F4F970142E0B7018CE0FD
:1006B0000E940902813091F407C0F701E90FF11D92
:1006C000308123279F5F02C020E090E09430A8F3A0
:1006D000F701E90FF11D9081291383E00F900F902E
:1006E0000F900F90DF91CF911F910F91FF90EF909E
:1006F000089584B18C6284B98CB581658CBD0895F0
:100700008EBD0DB407FEFDCF8EB508951F920F92DA
:100710000FB60F9211242F938F939F93EF93FF9314
:100720008091C0002091C6008C71E0913801EF5F8C
:10073000EF7190913701E91739F0E0933801F0E05B
:10074000E55CFE4F208301C082E090913601892B49
:1007500080933601FF91EF919F918F912F910F9090
:100760000FBE0F901F9018951F920F920FB60F9209
:1007700011248F939F93EF93FF9390913A0180916F
:100780003901981769F0E0913901EF5FEF71E0935B
:100790003901F0E0E55AFE4F80818093C60005C024
:1007A000E1ECF0E080818F7D8083FF91EF919F915C
:1007B0008F910F900FBE0F901F90189510923A01D5
:1007C000109239011092380110923701282F392FD9
:1007D00033231CF422E02093C00090789093C5004E
:1007E0008093C40088E98093C10086E08093C200B2
:1007F000089520913A012F5F2F71909139012917A7
:10080000E1F3E22FF0E0E55AFE4F808320933A01B6
:10081000E1ECF0E08081806280830895CF93DF93E4
:10082000EC0103C021960E94F90388818111FACF5F
:10083000DF91CF910895AEE0B0E0E1E2F4E00C94F6
:10084000DC060D891E8986E08C831A8309838FEF6D
:100850009FE79E838D83AE01475E5F4F6F89788DE2
:10086000CE0101960E943D04EF81F885E00FF11F53
:1008700010822E96E4E00C94F806ABE0B0E0E3E4DE
:10088000F4E00C94CE066C017B018A01FC01178216
:100890001682838181FFCCC1CE0101963C01F60115
:1008A0009381F70193FD859193FF81917F018823C7
:1008B00009F4BAC1853239F493FD859193FF819192
:1008C0007F01853229F4B60190E00E943406E7CF1B
:1008D000912C212C312CFFE1F315D8F08B3279F0DB
:1008E00038F4803279F08332A1F4232D20611DC0C9
:1008F0008D3261F0803369F4232D216016C0832D81
:100900008260382EE32DE4603E2E2AC0F32DF8607D
:100910001DC037FC2DC020ED280F2A3040F08E324C
:10092000B9F436FC81C1232D2064322E19C036FE65
:1009300006C08AE0989E200D1124922E11C0EAE094
:100940002E9E200D1124222EF32DF0623F2E08C082
:100950008C3621F4832D8068382E02C0883641F40D
:10096000F70193FD859193FF81917F018111B3CFB1
:10097000982F9F7D9554933028F40C5F1F4F9FE371
:1009800099830DC0833631F0833771F0833509F0D8
:1009900059C021C0F801808189830E5F1F4F8824D0
:1009A0008394912C530113C02801F2E04F0E511C87
:1009B000F801A080B18036FE03C0692D70E002C04E
:1009C0006FEF7FEFC5010E9429064C018201F32DD4
:1009D000FF773F2E16C0280122E0420E511CF8017D
:1009E000A080B18036FE03C0692D70E002C06FEFB9
:1009F0007FEFC5010E941E064C01F32DF0683F2ECB
:100A0000820133FC1BC0822D90E088169906B0F459
:100A1000B60180E290E00E9434062A94F4CFF501FA
:100A200037FC859137FE81915F01B60190E00E940D
:100A3000340621102A9421E0821A9108811491042D
:100A400071F7E8C0843611F0893641F5F80137FEB8
:100A500007C060817181828193810C5F1F4F08C044
:100A600060817181072E000C880B990B0E5F1F4F60
:100A7000F32DFF763F2E97FF09C0909580957095D6
:100A800061957F4F8F4F9F4FF0683F2E2AE030E0F7
:100A9000A3010E947006882E861845C0853731F460
:100AA000232D2F7EB22E2AE030E025C0932D997F92
:100AB000B92E8F36C1F018F4883579F0B5C080377B
:100AC00019F0883721F0B0C0E92FE061BE2EB4FEE6
:100AD0000DC0FB2DF460BF2E09C034FE0AC0292FC3
:100AE0002660B22E06C028E030E005C020E130E0EC
:100AF00002C020E132E0F801B7FE07C060817181D9
:100B0000828193810C5F1F4F06C06081718180E0FC
:100B100090E00E5F1F4FA3010E947006882E86187A
:100B2000FB2DFF773F2E36FE0DC0232D2E7FA22EEC
:100B3000891458F434FE0BC032FC09C0832D8E7E1C
:100B4000A82E05C0B82CA32C03C0B82C01C0B92C0A
:100B5000A4FE0FC0FE01E80DF11D8081803321F459
:100B60009A2D997EA92E09C0A2FE06C0B394B39413
:100B700004C08A2D867809F0B394A3FC11C0A0FEAE
:100B800006C0B21488F4280C922C9B180EC0B21424
:100B900060F4B60180E290E00E943406B394F7CF8F
:100BA000B21418F42B1802C0982C212CA4FE10C0EB
:100BB000B60180E390E00E943406A2FE17C0A1FCBB
:100BC00003C088E790E002C088E590E0B6010CC061
:100BD0008A2D867859F0A1FE02C08BE201C080E226
:100BE000A7FC8DE2B60190E00E943406891438F427
:100BF000B60180E390E00E9434069A94F7CF8A947D
:100C0000F301E80DF11D8081B60190E00E943406E9
:100C10008110F5CF222009F442CEB60180E290E0A7
:100C20000E9434062A94F6CFF6018681978102C08D
:100C30008FEF9FEF2B96E2E10C94EA06FC01059002
:100C4000615070400110D8F7809590958E0F9F1FCE
:100C50000895FC016150704001900110D8F7809513
:100C600090958E0F9F1F08950F931F93CF93DF933F
:100C7000FB01238121FD03C08FEF9FEF2CC022FFDA
:100C800016C046815781248135814217530744F4A9
:100C9000A081B1819D012F5F3F4F318320838C93D1
:100CA000268137812F5F3F4F3783268314C08B0106
:100CB000EC01FB010084F185E02D0995892BE1F61B
:100CC000D80116968D919C911797019617969C9333
:100CD0008E931697CE01DF91CF911F910F910895BA
:100CE000FA01AA27283051F1203181F1E8946F935D
:100CF0006E7F6E5F7F4F8F4F9F4FAF4FB1E03ED003
:100D0000B4E03CD0670F781F891F9A1FA11D680FA0
:100D1000791F8A1F911DA11D6A0F711D811D911DD3
:100D2000A11D20D009F468943F912AE0269F112448
:100D30003019305D3193DEF6CF010895462F4770AC
:100D4000405D4193B3E00FD0C9F7F6CF462F4F7007
:100D5000405D4A3318F0495D31FD4052419302D065
:100D6000A9F7EACFB4E0A69597958795779567950B
:100D7000BA95C9F700976105710508959B01AC010B
:100D80000A2E06945795479537952795BA95C9F732
:100D9000620F731F841F951FA01D08952F923F920D
:100DA0004F925F926F927F928F929F92AF92BF927B
:100DB000CF92DF92EF92FF920F931F93CF93DF9327
:100DC000CDB7DEB7CA1BDB0B0FB6F894DEBF0FBE84
:100DD000CDBF09942A88398848885F846E847D84D1
:100DE0008C849B84AA84B984C884DF80EE80FD80D3
:100DF0000C811B81AA81B981CE0FD11D0FB6F89449
:0E0E0000DEBF0FBECDBFED010895F894FFCF09
:100E0E007374617274696E672E2E2E007265616442
:100E1E0079202E2E2E00666F756E642063617264CB
:100E2E00202E2E2E0049443A202558255825582587
:060E3E005825580A0000CF
:00000001FF
