:100000000C9434000C9451000C9451000C94510049
:100010000C9451000C9451000C9451000C9451001C
:100020000C9451000C9451000C9451000C9451000C
:100030000C9451000C9451000C9451000C945100FC
:100040000C9451000C9451000C9451000C945100EC
:100050000C9451000C9498000C9451000C94510095
:100060000C9451000C94510011241FBECFEFD8E026
:10007000DEBFCDBF11E0A0E0B1E0E2E8FDE002C0EC
:1000800005900D92AC30B107D9F721E0ACE0B1E0BA
:1000900001C01D92AE30B207E1F70E94EA010C9454
:1000A000BF060C940000ECE7F0E08081856080835F
:1000B000808180648083EAE7F0E08081886A8083C1
:1000C00080818760808378940895EAE7F0E08081FA
:1000D000806480830895CF93DF93F89421E022C059
:1000E00080910C0190910D019C01220F331F220F72
:1000F000331F820F931FC92FC695C69580E0D82F56
:10010000BE0180E090E00E94B10220E030E040E0DB
:100110005FE30E94440320E030E040E250E40E94AC
:10012000450220E02111DCCF7894DF91CF91089532
:100130001F920F920FB60F9211248F939F9380916D
:1001400078009091790090930D0180930C019F911C
:100150008F910F900FBE0F901F90189588B18460FB
:1001600088B9000088B18B7F88B90895CF93C82FD4
:10017000662321F088B1816088B903C088B18E7F81
:1001800088B988B18D7F88B98AB180618AB98AB10E
:1001900080628AB98AB180648AB98AB180688AB972
:1001A0008BB18F778BB98BB18F7B8BB98BB18F7DF7
:1001B0008BB98BB18F7E8BB9CC231CF48BB180684B
:1001C0008BB9C6FF03C08BB180648BB9C5FF03C078
:1001D0008BB180628BB9C4FF03C08BB180618BB9D6
:1001E0000E94AE008BB18F778BB98BB18F7B8BB9AF
:1001F0008BB18F7D8BB98BB18F7E8BB9C3FF03C061
:100200008BB180688BB9C2FF03C08BB180648BB99E
:10021000C1FF03C08BB180628BB9C0FF03C08BB13B
:1002200080618BB90E94AE008BB180618BB98BB1BC
:1002300080628BB98BB180648BB98BB180688BB9CC
:10024000CF910895882321F088B1816088B903C0D7
:1002500088B18E7F88B988B1826088B98AB18F7E73
:100260008AB98AB18F7D8AB98AB18F7B8AB98AB1FE
:100270008F778AB988B1846088B900004C9902C030
:1002800080E001C080E14D9980624E9980644F9971
:10029000806898B19B7F98B9000098B1946098B934
:1002A00000004C9981604D9982604E9984604F990D
:1002B000886098B19B7F98B9089580E00E942201E0
:1002C0008823DCF300C000C080E00E942201089572
:1002D000CF93C82F0E945D0160E08C2F0E94B60072
:1002E000CF91089581E00E9468010895CF93C82FAF
:1002F0000E945D01CA3049F4803410F480E401C0EA
:1003000080E080580E94680104C061E08C2F0E9448
:10031000B600CF910895CF93DF93FC0103C00E94F4
:100320007601FE01EF01219680818111F8CFDF91E6
:10033000CF910895CF93C82F87B1816087B987B1D6
:10034000826087B987B1846087B98AB180618AB9D0
:100350008AB180628AB98AB180648AB98AB18068B8
:100360008AB98FE99FE00197F1F700C000008BB1D7
:1003700080628BB98BB180618BB90E94AE0081EE37
:1003800094E00197F1F700C000000E94AE0095E1F3
:100390009A95F1F700000E94AE0085E18A95F1F789
:1003A00000008BB18F7E8BB90E94AE0095E19A95CB
:1003B000F1F7000088E20E94680188E00E9468016D
:1003C0000E94720186E00E9468018C2F0E946801E1
:1003D000CF910895CF93DF93CDB7DEB764970FB673
:1003E000F894DEBF0FBECDBF8CE00E949A010E9440
:1003F00053000E9465002FEF83ED90E32150804071
:100400009040E1F700C000000E946B00162F072FFC
:10041000F82EE92E9F938F937F936F9380E091E066
:100420009F938F93CE0101966C019F938F930E94AF
:10043000D5030E947201C6010E948B010FB6F89489
:10044000DEBF0FBECDBF20E030E040E650E4612FBC
:10045000702F8F2D9E2D0E943F03181664F6EF9289
:10046000FF920F931F9385E091E09F938F93DF920C
:10047000CF920E94D503C6010E948B010FB6F8945B
:10048000DEBF0FBECDBFB7CF5058BB27AA270E94F3
:100490005C020C9405030E94F70238F00E94FE02F1
:1004A00020F039F49F3F19F426F40C94F4020EF472
:1004B000E095E7FB0C94EE02E92F0E94160358F337
:1004C000BA17620773078407950720F079F4A6F539
:1004D0000C9438030EF4E0950B2EBA2FA02D0B01CF
:1004E000B90190010C01CA01A0011124FF27591B79
:1004F00099F0593F50F4503E68F11A16F040A22F7F
:10050000232F342F4427585FF3CF469537952795EF
:10051000A795F0405395C9F77EF41F16BA0B620BEE
:10052000730B840BBAF09150A1F0FF0FBB1F661F35
:10053000771F881FC2F70EC0BA0F621F731F841F78
:1005400048F4879577956795B795F7959E3F08F09E
:10055000B0CF9395880F08F09927EE0F9795879560
:100560000895E89409C097FB3EF4909580957095A6
:1005700061957F4F8F4F9F4F9923A9F0F92F96E9EF
:10058000BB279395F695879577956795B795F11164
:10059000F8CFFAF4BB0F11F460FF1BC06F5F7F4F01
:1005A0008F4F9F4F16C0882311F096E911C0772313
:1005B00021F09EE8872F762F05C0662371F096E81C
:1005C000862F70E060E02AF09A95660F771F881FEB
:1005D000DAF7880F9695879597F9089597F99F67A9
:1005E00080E870E060E008959FEF80EC08950024BB
:1005F0000A941616170618060906089500240A9488
:1006000012161306140605060895092E0394000C0D
:1006100011F4882352F0BB0F40F4BF2B11F460FF9C
:1006200004C06F5F7F4F8F4F9F4F089557FD9058C5
:10063000440F551F59F05F3F71F04795880F97FBA6
:10064000991F61F09F3F79F0879508951216130660
:100650001406551FF2CF4695F1DF08C0161617068F
:100660001806991FF1CF86957105610508940895C4
:10067000E894BB2766277727CB0197F908950E9456
:10068000B10308F48FEF08950E9457030C940503FB
:100690000E94F70238F00E94FE0220F0952311F02C
:1006A0000C94EE020C94F40211240C9439030E9471
:1006B000160370F3959FC1F3950F50E0551F629F8D
:1006C000F001729FBB27F00DB11D639FAA27F00DAB
:1006D000B11DAA1F649F6627B00DA11D661F829FD2
:1006E0002227B00DA11D621F739FB00DA11D621FB7
:1006F000839FA00D611D221F749F3327A00D611DD4
:10070000231F849F600D211D822F762F6A2F1124B5
:100710009F5750409AF0F1F088234AF0EE0FFF1FE8
:10072000BB1F661F771F881F91505040A9F79E3F3F
:10073000510580F00C94EE020C9439035F3FE4F312
:10074000983ED4F3869577956795B795F795E79595
:100750009F5FC1F7FE2B880F911D9695879597F99E
:100760000895990F0008550FAA0BE0E8FEEF161642
:100770001706E807F907C0F012161306E407F50795
:1007800098F0621B730B840B950B39F40A2661F009
:10079000232B242B252B21F408950A2609F4A140AC
:1007A000A6958FEF811D811D0895AEE0B0E0EBEDC1
:1007B000F3E00C9496060D891E8986E08C831A83DB
:1007C00009838FEF9FE79E838D83AE01475E5F4F66
:1007D0006F89788DCE0101960E94F703EF81F8852D
:1007E000E00FF11F10822E96E4E00C94B206ABE00D
:1007F000B0E0EDEFF3E00C9488066C017B018A0118
:10080000FC0117821682838181FFCCC1CE01019643
:100810003C01F6019381F70193FD859193FF81914E
:100820007F01882309F4BAC1853239F493FD85919B
:1008300093FF81917F01853229F4B60190E00E94F7
:10084000EE05E7CF912C212C312CFFE1F315D8F0E8
:100850008B3279F038F4803279F08332A1F4232D91
:1008600020611DC08D3261F0803369F4232D216039
:1008700016C0832D8260382EE32DE4603E2E2AC000
:10088000F32DF8601DC037FC2DC020ED280F2A3055
:1008900040F08E32B9F436FC81C1232D2064322E13
:1008A00019C036FE06C08AE0989E200D1124922EB3
:1008B00011C0EAE02E9E200D1124222EF32DF062AD
:1008C0003F2E08C08C3621F4832D8068382E02C05C
:1008D000883641F4F70193FD859193FF81917F0163
:1008E0008111B3CF982F9F7D9554933028F40C5FDE
:1008F0001F4F9FE399830DC0833631F0833771F02A
:10090000833509F059C021C0F801808189830E5FC9
:100910001F4F88248394912C530113C02801F2E0C7
:100920004F0E511CF801A080B18036FE03C0692D26
:1009300070E002C06FEF7FEFC5010E94E3054C013C
:100940008201F32DFF773F2E16C0280122E0420ED0
:10095000511CF801A080B18036FE03C0692D70E003
:1009600002C06FEF7FEFC5010E94D8054C01F32D47
:10097000F0683F2E820133FC1BC0822D90E0881668
:100980009906B0F4B60180E290E00E94EE052A9448
:10099000F4CFF50137FC859137FE81915F01B601F7
:1009A00090E00E94EE0521102A9421E0821A91081D
:1009B0008114910471F7E8C0843611F0893641F54D
:1009C000F80137FE07C060817181828193810C5FDD
:1009D0001F4F08C060817181072E000C880B990B96
:1009E0000E5F1F4FF32DFF763F2E97FF09C09095A6
:1009F0008095709561957F4F8F4F9F4FF0683F2E88
:100A00002AE030E0A3010E942A06882E861845C0FD
:100A1000853731F4232D2F7EB22E2AE030E025C019
:100A2000932D997FB92E8F36C1F018F4883579F05F
:100A3000B5C0803719F0883721F0B0C0E92FE061E8
:100A4000BE2EB4FE0DC0FB2DF460BF2E09C034FED7
:100A50000AC0292F2660B22E06C028E030E005C06B
:100A600020E130E002C020E132E0F801B7FE07C02B
:100A700060817181828193810C5F1F4F06C060810C
:100A8000718180E090E00E5F1F4FA3010E942A0653
:100A9000882E8618FB2DFF773F2E36FE0DC0232DA6
:100AA0002E7FA22E891458F434FE0BC032FC09C0EC
:100AB000832D8E7EA82E05C0B82CA32C03C0B82C85
:100AC00001C0B92CA4FE0FC0FE01E80DF11D80810C
:100AD000803321F49A2D997EA92E09C0A2FE06C06A
:100AE000B394B39404C08A2D867809F0B394A3FC20
:100AF00011C0A0FE06C0B21488F4280C922C9B18DA
:100B00000EC0B21460F4B60180E290E00E94EE05DF
:100B1000B394F7CFB21418F42B1802C0982C212CE0
:100B2000A4FE10C0B60180E390E00E94EE05A2FE94
:100B300017C0A1FC03C088E790E002C088E590E000
:100B4000B6010CC08A2D867859F0A1FE02C08BE256
:100B500001C080E2A7FC8DE2B60190E00E94EE05A4
:100B6000891438F4B60180E390E00E94EE059A946F
:100B7000F7CF8A94F301E80DF11D8081B60190E072
:100B80000E94EE058110F5CF222009F442CEB60175
:100B900080E290E00E94EE052A94F6CFF60186816D
:100BA000978102C08FEF9FEF2B96E2E10C94A40691
:100BB000FC010590615070400110D8F78095909528
:100BC0008E0F9F1F0895FC0161507040019001102D
:100BD000D8F7809590958E0F9F1F08950F931F93C0
:100BE000CF93DF93FB01238121FD03C08FEF9FEFA4
:100BF0002CC022FF16C046815781248135814217BF
:100C0000530744F4A081B1819D012F5F3F4F318391
:100C100020838C93268137812F5F3F4F3783268334
:100C200014C08B01EC01FB010084F185E02D0995D6
:100C3000892BE1F6D80116968D919C911797019614
:100C400017969C938E931697CE01DF91CF911F91AB
:100C50000F910895FA01AA27283051F1203181F12E
:100C6000E8946F936E7F6E5F7F4F8F4F9F4FAF4FB4
:100C7000B1E03ED0B4E03CD0670F781F891F9A1FC7
:100C8000A11D680F791F8A1F911DA11D6A0F711D7B
:100C9000811D911DA11D20D009F468943F912AE087
:100CA000269F11243019305D3193DEF6CF0108956F
:100CB000462F4770405D4193B3E00FD0C9F7F6CFA0
:100CC000462F4F70405D4A3318F0495D31FD405268
:100CD000419302D0A9F7EACFB4E0A69597958795FE
:100CE00077956795BA95C9F70097610571050895DD
:100CF0009B01AC010A2E0694579547953795279589
:100D0000BA95C9F7620F731F841F951FA01D089520
:100D10002F923F924F925F926F927F928F929F920B
:100D2000AF92BF92CF92DF92EF92FF920F931F93F9
:100D3000CF93DF93CDB7DEB7CA1BDB0B0FB6F894AA
:100D4000DEBF0FBECDBF09942A88398848885F84EA
:100D50006E847D848C849B84AA84B984C884DF805B
:100D6000EE80FD800C811B81AA81B981CE0FD11D3F
:100D70000FB6F894DEBF0FBECDBFED010895F89415
:020D8000FFCFA3
:0C0D8200252E3266000A414C41524D0003
:00000001FF
