:100000000C9434000C9401050C9407050C945100D9
:100010000C9451000C9451000C9451000C9451001C
:100020000C9451000C9451000C9451000C942F032B
:100030000C9451000C9451000C9451000C945100FC
:100040000C9451000C9451000C9474040C945100C5
:100050000C9451000C9451000C9451000C945100DC
:100060000C9451000C94510011241FBECFEFD8E026
:10007000DEBFCDBF11E0A0E0B1E0E4E6F0E102C0F8
:1000800005900D92AA38B107D9F721E0AAE8B1E0AE
:1000900001C01D92A539B207E1F70E942C050C940E
:1000A00030080C9400001F93CF93DF9300D000D052
:1000B0001F92CDB7DEB7FC019E012F5F3F4F85E059
:1000C000D9011D928A95E9F787B1886087B998B1FF
:1000D000986098B9BFEF21EE84E0B1502040804095
:1000E000E1F700C0000098B1977F98B99FEFA0EEAC
:1000F000B0E09150A040B040E1F700C0000098B1DE
:10010000986098B997B1977F97B925ED2A95F1F73F
:100110000000339965C08FE391E00197F1F700C0CB
:100120000000339B5FC0AFE3B1E01197F1F700C06F
:10013000000010E034C02F5F3F4F293C310518F01C
:1001400053C020E030E0339BF6CFB0EABA95F1F728
:10015000339B0CC047E050E0491B510921E030E0DF
:1001600002C0220F331F4A95E2F7822B20E030E0D5
:1001700005C02F5F3F4F293C3105C0F53399F9CFBA
:100180009F5F02C080E090E09830D8F221E030E03C
:100190002C0F3D1F210F311DD9018C931F5F15308E
:1001A00088F387B1886087B988B1886088B9BFEF64
:1001B00021EE84E0B15020408040E1F700C0000013
:1001C00089819A813B812C81890F830F820F9D81C8
:1001D00089130EC030838981DB018C9380E009C0D4
:1001E0008FEF07C08EEF05C08DEF03C08FEF01C00A
:1001F0008BEF0F900F900F900F900F90DF91CF919A
:100200001F9108950E945300089588B1846088B9B1
:1002100000C088B18B7F88B90895CF93C82F8AB169
:10022000806F8AB988B18D7F88B9662321F088B143
:10023000816088B903C088B18E7F88B98BB18F7017
:100240009C2F907F892B8BB90E9405012BB130E147
:10025000C39FC0011124922F9F70892B8BB90E94DC
:1002600005018BB1806F8BB9CF910895882321F060
:1002700088B1816088B903C088B18E7F88B988B1A0
:10028000826088B98AB18F708AB988B1846088B970
:1002900000C029B188B18B7F88B900C088B1846063
:1002A00088B900C099B188B18B7F88B9207F892F28
:1002B00082958F70822B089580E00E9436018823FA
:1002C000DCF380E00E9436010895CF93C82F0E948E
:1002D0005C0160E08C2F0E940D01CF910895803465
:1002E00010F480E401C080E080580E946501089508
:1002F00081E00E9465010895CF93C82F0E945C01A0
:10030000CA3019F40E946F0104C061E08C2F0E9472
:100310000D01CF910895CF93DF93FC0103C00E949C
:100320007C01FE01EF01219680818111F8CFDF91E0
:10033000CF910895CF93C82F8AB1806F8AB987B1C2
:10034000816087B988B18E7F88B987B1826087B9AB
:1003500088B18D7F88B987B1846087B988B18B7F78
:1003600088B98BB18F7080638BB90E9405018BB106
:100370008F7080638BB90E9405018BB18F70806391
:100380008BB90E9405018BB18F7080628BB90E947E
:10039000050188E20E94650188E00E9465010E94D3
:1003A000780186E00E9465018C2F0E946501CF9143
:1003B0000895E0E8F0E080818C7F8083E1E8F0E060
:1003C00080818860808380818F7E808380E09AEF47
:1003D0009093890080938800EFE6F0E0808182604E
:1003E000808308958CE00E949A01089587E690E04A
:1003F0009093C5008093C400E1ECF0E080818869AF
:100400008083E2ECF0E0808186608083089584B18F
:10041000836084B985B18C7F85B9089584B1846087
:1004200084B985B18B7F85B908959EE088E10FB6C8
:10043000F894A895809360000FBE90936000089593
:100440008BB184608BB98DB381608DBB8BB18860BB
:100450008BB98DB382608DBB089585B1846085B9F9
:1004600081E080938B01089585B18B7F85B91092CF
:100470008B01089510928D0110928E0110928F01C0
:100480001092900140918D0150918E0160918F01E9
:100490007091900181E0452B462B472B09F480E0B9
:1004A000809300010895E1E8F0E08081887F8083F7
:1004B0000E94340208950E9453020E94D9010E94B2
:1004C000F6010E94F2010E943A020E9407020E9475
:1004D0000E020E9415020E942002109294011092B6
:1004E0009301109292011092910184E08093010196
:1004F00010928D0110928E0110928F011092900136
:100500001092000110928C0110928A0178940E943E
:10051000780182E091E00E948B010895FC0107C000
:100520009091C00095FFFCCF31968093C6008081EA
:100530008111F6CF8091C00085FFFCCF0895CF9345
:10054000DF93EC010E94780103C021960E947C0198
:1005500088818111FACFDF91CF91089580918D012B
:1005600090918E01A0918F01B09190010196A11DF3
:10057000B11D80938D0190938E01A0938F01B09354
:10058000900180918D0190918E01A0918F01B09189
:1005900090010895CF92DF92EF92FF920F931F93F5
:1005A000CF93DF93CDB7DEB769970FB6F894DEBF70
:1005B0000FBECDBFF999FECF1FE0E12EF12CC70190
:1005C0000E94E3078F3F59F10E94AE02D82EC92E38
:1005D000C70140960E94E307082FC7010E94E30766
:1005E0001F9293E09F93CF92DF921F920F931F92DF
:1005F0008F931F9282E08F9383E191E09F938F937B
:10060000CE0101967C019F938F930E943005C70114
:100610000E948E020FB6F894DEBF0FBECDBF11232D
:1006200011F01150CACFE1E8F0E08081836080834F
:1006300080818B7F808381E0809300010E942D0266
:1006400069960FB6F894DEBF0FBECDBFDF91CF9194
:100650001F910F91FF90EF90DF90CF9008951F9220
:100660000F920FB60F921124EF92FF920F931F93E8
:100670002F933F934F935F936F937F938F939F93AA
:10068000AF93BF93EF93FF93CF93DF93CDB7DEB7D5
:100690006997DEBFCDBF8091010124E08202C001D5
:1006A00011242091930130919401281739070CF4FB
:1006B000F5C080910001882309F48BC010920001DD
:1006C00061E971E082E991E00E9402018F3F09F443
:1006D00079C090919101809192011F9225E22F9310
:1006E000292F092E000C330B3F939F931F929FEDF0
:1006F0009F93282F082E000C330B3F938F9389E292
:1007000091E09F938F938E010F5F1F4F1F930F9365
:100710000E943005C8010E949F020E94AE023091E3
:100720009101209192011F9243E04F939F938F93E9
:10073000832F032E000C990B9F933F93822F022E41
:10074000000C990B9F932F931F9282E08F9383E16C
:1007500091E09F938F931F930F930E943005C801E0
:100760000E948E020FB6F894DEBF0FBECDBF1FE011
:100770000BC0E12EF12CC70101970E94E307682FFF
:10078000C7010E94EB0711501111F3CF6091920144
:1007900080E090E00E94EB071FE10BC0E12EF12CFE
:1007A000C70101970E94E307682FC7010E94EB076A
:1007B0001150113198F76091910180E190E00E9411
:1007C000EB0704C08BE391E00E949F0210928C0122
:1007D00060C080918C0182309CF085B1826085B9C7
:1007E00083E2E1E4F1E0DE01119601900D928A9539
:1007F000E1F7CE0101960E949F020E94530249C078
:1008000080910001811145C081E1E4E6F1E08E01B3
:100810000F5F1F4FD80101900D928A95E1F7C80133
:100820000E949F0280918D0190918E01A0918F0175
:10083000B091900130919101209192011F9243E07B
:100840004F93BF93AF939F938F93832F032E000CEF
:10085000990B9F933F93822F022E000C990B9F932D
:100860002F931F9282E08F9383E191E09F938F9368
:100870001F930F930E943005C8010E948E02809141
:100880008C018F5F80938C010FB6F894DEBF0FBE92
:10089000CDBF109294011092930109C080919301F1
:1008A000909194010196909394018093930169969D
:1008B0000FB6F894DEBF0FBECDBFDF91CF91FF9191
:1008C000EF91BF91AF919F918F917F916F915F91C8
:1008D0004F913F912F911F910F91FF90EF900F90AB
:1008E0000FBE0F901F9018951F920F920FB60F9288
:1008F00011240F931F932F933F934F935F936F9305
:100900007F938F939F93AF93BF93EF93FF93CF9377
:10091000DF93CDB7DEB76097DEBFCDBF8091C60055
:10092000813321F481E08093010150C0843321F4AC
:1009300084E0809301014AC0863041F485E791E06C
:100940000E949F0281E08093000140C0823719F429
:100950000E945B023BC0843619F40E94CA0236C072
:10096000813719F40E94530231C0853639F48091E1
:100970008C0183305CF50E942D0228C0813619F469
:100980000E94340223C0833709F50E94AE022091F1
:100990008B011F9233E03F939F938F931F922F936E
:1009A0001F9282E08F9389E791E09F938F938E014E
:1009B0000F5F1F4F1F930F930E943005C8010E94C5
:1009C0008E020FB6F894DEBF0FBECDBF60960FB695
:1009D000F894DEBF0FBECDBFDF91CF91FF91EF91B5
:1009E000BF91AF919F918F917F916F915F914F9147
:1009F0003F912F911F910F910F900FBE0F901F905D
:100A000018951F920F920FB60F921124FFCF1F92CD
:100A10000F920FB60F9211248F939F93EF93FF9332
:100A200080910101843011F481E001C084E0809361
:100A300001018CEB92E005C0E0E9F1E03197F1F7BC
:100A400001970097C9F7FF91EF919F918F910F90B8
:100A50000FBE0F901F9018950E945B02A895FECFC5
:100A6000AEE0B0E0E6E3F5E00C9407080D891E89DE
:100A700086E08C831A8309838FEF9FE79E838D83A3
:100A8000AE01475E5F4F6F89788DCE0101960E945F
:100A90005205EF81F885E00FF11F10822E96E4E0F9
:100AA0000C942308ABE0B0E0E8E5F5E00C94F9071E
:100AB0006C017B018A01FC0117821682838181FF10
:100AC000CCC1CE0101963C01F6019381F70193FD63
:100AD000859193FF81917F01882309F4BAC1853202
:100AE00039F493FD859193FF81917F01853229F43B
:100AF000B60190E00E944907E7CF912C212C312CC0
:100B0000FFE1F315D8F08B3279F038F4803279F0C8
:100B10008332A1F4232D20611DC08D3261F080331A
:100B200069F4232D216016C0832D8260382EE32DB9
:100B3000E4603E2E2AC0F32DF8601DC037FC2DC0A6
:100B400020ED280F2A3040F08E32B9F436FC81C1F6
:100B5000232D2064322E19C036FE06C08AE0989EEE
:100B6000200D1124922E11C0EAE02E9E200D11249A
:100B7000222EF32DF0623F2E08C08C3621F4832DF7
:100B80008068382E02C0883641F4F70193FD8591C4
:100B900093FF81917F018111B3CF982F9F7D955451
:100BA000933028F40C5F1F4F9FE399830DC0833669
:100BB00031F0833771F0833509F059C021C0F80155
:100BC000808189830E5F1F4F88248394912C530169
:100BD00013C02801F2E04F0E511CF801A080B18033
:100BE00036FE03C0692D70E002C06FEF7FEFC501D4
:100BF0000E943E074C018201F32DFF773F2E16C065
:100C0000280122E0420E511CF801A080B18036FE7E
:100C100003C0692D70E002C06FEF7FEFC5010E9435
:100C200033074C01F32DF0683F2E820133FC1BC0CB
:100C3000822D90E088169906B0F4B60180E290E02B
:100C40000E9449072A94F4CFF50137FC859137FEBD
:100C500081915F01B60190E00E94490721102A941A
:100C600021E0821A91088114910471F7E8C084365A
:100C700011F0893641F5F80137FE07C060817181B6
:100C8000828193810C5F1F4F08C060817181072EA4
:100C9000000C880B990B0E5F1F4FF32DFF763F2E34
:100CA00097FF09C090958095709561957F4F8F4F04
:100CB0009F4FF0683F2E2AE030E0A3010E94850795
:100CC000882E861845C0853731F4232D2F7EB22E0D
:100CD0002AE030E025C0932D997FB92E8F36C1F0E0
:100CE00018F4883579F0B5C0803719F0883721F0CD
:100CF000B0C0E92FE061BE2EB4FE0DC0FB2DF46044
:100D0000BF2E09C034FE0AC0292F2660B22E06C0AD
:100D100028E030E005C020E130E002C020E132E010
:100D2000F801B7FE07C060817181828193810C5FF9
:100D30001F4F06C06081718180E090E00E5F1F4F01
:100D4000A3010E948507882E8618FB2DFF773F2E72
:100D500036FE0DC0232D2E7FA22E891458F434FEAA
:100D60000BC032FC09C0832D8E7EA82E05C0B82C86
:100D7000A32C03C0B82C01C0B92CA4FE0FC0FE01E7
:100D8000E80DF11D8081803321F49A2D997EA92EE2
:100D900009C0A2FE06C0B394B39404C08A2D86781D
:100DA00009F0B394A3FC11C0A0FE06C0B21488F4ED
:100DB000280C922C9B180EC0B21460F4B60180E28D
:100DC00090E00E944907B394F7CFB21418F42B189F
:100DD00002C0982C212CA4FE10C0B60180E390E044
:100DE0000E944907A2FE17C0A1FC03C088E790E05B
:100DF00002C088E590E0B6010CC08A2D867859F0D3
:100E0000A1FE02C08BE201C080E2A7FC8DE2B60128
:100E100090E00E944907891438F4B60180E390E01D
:100E20000E9449079A94F7CF8A94F301E80DF11DC7
:100E30008081B60190E00E9449078110F5CF222001
:100E400009F442CEB60180E290E00E9449072A945C
:100E5000F6CFF6018681978102C08FEF9FEF2B9628
:100E6000E2E10C941508FC010590615070400110FE
:100E7000D8F7809590958E0F9F1F0895FC016150C3
:100E8000704001900110D8F7809590958E0F9F1FAC
:100E900008950F931F93CF93DF93FB01238121FDCF
:100EA00003C08FEF9FEF2CC022FF16C046815781F1
:100EB000248135814217530744F4A081B1819D01FB
:100EC0002F5F3F4F318320838C93268137812F5FA3
:100ED0003F4F3783268314C08B01EC01FB01008454
:100EE000F185E02D0995892BE1F6D80116968D91B3
:100EF0009C911797019617969C938E931697CE0107
:100F0000DF91CF911F910F910895FA01AA27283000
:100F100051F1203181F1E8946F936E7F6E5F7F4FC6
:100F20008F4F9F4FAF4FB1E03ED0B4E03CD0670F42
:100F3000781F891F9A1FA11D680F791F8A1F911D95
:100F4000A11D6A0F711D811D911DA11D20D009F4E5
:100F500068943F912AE0269F11243019305D319327
:100F6000DEF6CF010895462F4770405D4193B3E010
:100F70000FD0C9F7F6CF462F4F70405D4A3318F0B7
:100F8000495D31FD4052419302D0A9F7EACFB4E068
:100F9000A6959795879577956795BA95C9F7009720
:100FA0006105710508959B01AC010A2E06945795C1
:100FB000479537952795BA95C9F7620F731F841F18
:100FC000951FA01D0895F999FECF92BD81BDF89A95
:100FD000992780B50895262FF999FECF1FBA92BDA3
:100FE00081BD20BD0FB6F894FA9AF99A0FBE01960A
:100FF00008952F923F924F925F926F927F928F92BD
:101000009F92AF92BF92CF92DF92EF92FF920F9397
:101010001F93CF93DF93CDB7DEB7CA1BDB0B0FB6A1
:10102000F894DEBF0FBECDBF09942A88398848885E
:101030005F846E847D848C849B84AA84B984C884F4
:10104000DF80EE80FD800C811B81AA81B981CE0FEB
:10105000D11D0FB6F894DEBF0FBECDBFED010895D0
:04106000F894FFCF32
:10106400010453656E64206420746F20737461728C
:1010740074210025634441544525757C48552575E4
:101084007C534E25757C256300543A2025752563D1
:10109400433B20483A2025752563004572726F72E0
:1010A400004E4F542041434B4E4F574C4544474507
:1010B400440D0A454D4245444445442053544F5041
:1010C400504544004E4F542041434B4E4F574C45DE
:1010D400444745440041434B0025635354464F2540
:0A10E400757C534E25757C256300D2
:040000030000059460
:00000001FF
