:100000000C9434000C9494010C94F9010C9451005C
:100010000C9451000C9451000C9451000C9451001C
:100020000C9451000C9451000C9451000C9451000C
:100030000C9451000C9451000C9451000C945100FC
:100040000C9451000C9451000C9451000C945100EC
:100050000C9451000C9480010C9451000C945100AC
:100060000C9451000C94510011241FBECFEFD8E026
:10007000DEBFCDBF11E0A0E0B1E0EEE5FCE002C0E4
:1000800005900D92AE31B107D9F721E0AEE1B1E0B4
:1000900001C01D92A032B207E1F70E9427010C9423
:1000A0002D060C94000088B1846088B900C088B126
:1000B0008B7F88B90895CF93C82F8AB1806F8AB992
:1000C00088B18D7F88B9662321F088B1816088B9B5
:1000D00003C088B18E7F88B98BB18F709C2F907FC1
:1000E000892B8BB90E9453002BB130E1C39FC00113
:1000F0001124922F9F70892B8BB90E9453008BB1D2
:10010000806F8BB9CF910895882321F088B18160E9
:1001100088B903C088B18E7F88B988B1826088B9F8
:100120008AB18F708AB988B1846088B900C029B15A
:1001300088B18B7F88B900C088B1846088B900C05D
:1001400099B188B18B7F88B9207F892F82958F7074
:10015000822B089580E00E9484008823DCF380E0F5
:100160000E9484000895CF93C82F0E94AA0060E0E7
:100170008C2F0E945B00CF910895803410F480E4AE
:1001800001C080E080580E94B300089581E00E9481
:10019000B3000895CF93C82F0E94AA00CA3019F463
:1001A0000E94BD0004C061E08C2F0E945B00CF91D3
:1001B0000895CF93DF93FC0103C00E94CA00FE01A3
:1001C000EF01219680818111F8CFDF91CF910895C1
:1001D000CF93C82F8AB1806F8AB987B1816087B900
:1001E00088B18E7F88B987B1826087B988B18D7FE9
:1001F00088B987B1846087B988B18B7F88B98BB1A2
:100200008F7080638BB90E9453008BB18F708063B5
:100210008BB90E9453008BB18F7080638BB90E94A1
:1002200053008BB18F7080628BB90E94530088E2BB
:100230000E94B30088E00E94B3000E94C60086E0DE
:100240000E94B3008C2F0E94B300CF910895CF93EA
:10025000DF93CDB7DEB760970FB6F894DEBF0FBE61
:10026000CDBFECE7F0E08081806480838081836093
:100270008083EAE7F0E08081806280838081886803
:1002800080838081876080838081806480838CE02C
:100290000E94E8008AB18A7F8AB98BB18C608BB9E1
:1002A0008DB383608DBB789480E090E00E946A05F6
:1002B000282F392F30931F0120931E019F938F9376
:1002C00085E091E09F938F938E010F5F1F4F1F93E7
:1002D0000F930E94B7020E94C600C8010E94D90075
:1002E0002FEF83ED90E3215080409040E1F700C074
:1002F00000000F900F900F900F900F900F90FFCF76
:100300001F920F920FB60F9211248F939F9380919B
:10031000780090917900809304019F918F910F90C4
:100320000FBE0F901F9018951F920F920FB60F924D
:1003300011240F931F932F933F934F935F936F93CA
:100340007F938F939F93AF93BF93EF93FF93CF933D
:10035000DF93CDB7DEB76097DEBFCDBF80910401DC
:1003600090E00E94AC020E94A70290931F0180932C
:100370001E0180911E0190911F019F938F9380E138
:1003800091E09F938F938E010F5F1F4F1F930F93E9
:100390000E94B7020E94C600C8010E94D9002FEF38
:1003A00083EC99E0215080409040E1F700C00000CC
:1003B0000F900F900F900F900F900F9060960FB6C8
:1003C000F894DEBF0FBECDBFDF91CF91FF91EF91CB
:1003D000BF91AF919F918F917F916F915F914F915D
:1003E0003F912F911F910F910F900FBE0F901F9073
:1003F00018951F920F920FB60F9211240F931F930F
:100400002F933F934F935F936F937F938F939F931C
:10041000AF93BF93EF93FF93CF93DF93CDB7DEB747
:100420006097DEBFCDBF60911E0170911F0180E01B
:1004300090E00E94700580911E0190911F019F9392
:100440008F9383E191E09F938F938E010F5F1F4FF6
:100450001F930F930E94B7020E94C600C8010E941A
:10046000D9002FEF83ED90E3215080409040E1F7D9
:1004700000C000000F900F900F900F900F900F9002
:1004800060960FB6F894DEBF0FBECDBFDF91CF915F
:10049000FF91EF91BF91AF919F918F917F916F915C
:1004A0005F914F913F912F911F910F910F900FBE30
:1004B0000F901F9018958F929F92AF92BF92CF92FC
:1004C000DF92EF92FF92CF93DF93EC016881798105
:1004D0008A819B81611571058105910521F464E292
:1004E00079ED8BE597E02DE133EF41E050E00E949C
:1004F000930549015A019B01AC01A7EAB1E40E94AE
:10050000B2056B017C01ACEEB4EFA50194010E9431
:10051000C005DC01CB018C0D9D1DAE1DBF1DB7FFBD
:1005200003C00197A109B04888839983AA83BB833C
:100530009F77DF91CF91FF90EF90DF90CF90BF90AA
:10054000AF909F908F9008950E945B02089580E085
:1005500091E00E945B020895A0E0B0E0809300016A
:1005600090930101A0930201B09303010895AEE0BE
:10057000B0E0EDEBF2E00C94D3050D891E8986E026
:100580008C831A8309838FEF9FE79E838D83AE014F
:10059000475E5F4F6F89788DCE0101960E94D90228
:1005A000EF81F885E00FF11F10822E96E4E00C94A5
:1005B000EF05ABE0B0E0EFEDF2E00C94C5056C01A7
:1005C0007B018A01FC0117821682838181FFCCC1E5
:1005D000CE0101963C01F6019381F70193FD8591CF
:1005E00093FF81917F01882309F4BAC1853239F4E0
:1005F00093FD859193FF81917F01853229F4B601A6
:1006000090E00E94D004E7CF912C212C312CFFE107
:10061000F315D8F08B3279F038F4803279F08332E8
:10062000A1F4232D20611DC08D3261F0803369F467
:10063000232D216016C0832D8260382EE32DE460C7
:100640003E2E2AC0F32DF8601DC037FC2DC020EDD2
:10065000280F2A3040F08E32B9F436FC81C1232DA8
:100660002064322E19C036FE06C08AE0989E200D06
:100670001124922E11C0EAE02E9E200D1124222E6C
:10068000F32DF0623F2E08C08C3621F4832D806854
:10069000382E02C0883641F4F70193FD859193FF0F
:1006A00081917F018111B3CF982F9F7D9554933015
:1006B00028F40C5F1F4F9FE399830DC0833631F000
:1006C000833771F0833509F059C021C0F80180816A
:1006D00089830E5F1F4F88248394912C530113C08C
:1006E0002801F2E04F0E511CF801A080B18036FEC7
:1006F00003C0692D70E002C06FEF7FEFC5010E945B
:10070000C5044C018201F32DFF773F2E16C028014E
:1007100022E0420E511CF801A080B18036FE03C0D9
:10072000692D70E002C06FEF7FEFC5010E94BA042F
:100730004C01F32DF0683F2E820133FC1BC0822D4B
:1007400090E088169906B0F4B60180E290E00E942D
:10075000D0042A94F4CFF50137FC859137FE8191BE
:100760005F01B60190E00E94D00421102A9421E09C
:10077000821A91088114910471F7E8C0843611F04F
:10078000893641F5F80137FE07C0608171818281A9
:1007900093810C5F1F4F08C060817181072E000C90
:1007A000880B990B0E5F1F4FF32DFF763F2E97FF9F
:1007B00009C090958095709561957F4F8F4F9F4FA1
:1007C000F0683F2E2AE030E0A3010E940C05882E3D
:1007D000861845C0853731F4232D2F7EB22E2AE0AE
:1007E00030E025C0932D997FB92E8F36C1F018F4D3
:1007F000883579F0B5C0803719F0883721F0B0C05E
:10080000E92FE061BE2EB4FE0DC0FB2DF460BF2EBB
:1008100009C034FE0AC0292F2660B22E06C028E087
:1008200030E005C020E130E002C020E132E0F80114
:10083000B7FE07C060817181828193810C5F1F4F79
:1008400006C06081718180E090E00E5F1F4FA301C0
:100850000E940C05882E8618FB2DFF773F2E36FE52
:100860000DC0232D2E7FA22E891458F434FE0BC008
:1008700032FC09C0832D8E7EA82E05C0B82CA32C77
:1008800003C0B82C01C0B92CA4FE0FC0FE01E80DB6
:10089000F11D8081803321F49A2D997EA92E09C003
:1008A000A2FE06C0B394B39404C08A2D867809F0E2
:1008B000B394A3FC11C0A0FE06C0B21488F4280CA7
:1008C000922C9B180EC0B21460F4B60180E290E046
:1008D0000E94D004B394F7CFB21418F42B1802C0BE
:1008E000982C212CA4FE10C0B60180E390E00E9459
:1008F000D004A2FE17C0A1FC03C088E790E002C0AC
:1009000088E590E0B6010CC08A2D867859F0A1FEEA
:1009100002C08BE201C080E2A7FC8DE2B60190E04C
:100920000E94D004891438F4B60180E390E00E945C
:10093000D0049A94F7CF8A94F301E80DF11D8081D9
:10094000B60190E00E94D0048110F5CF222009F476
:1009500042CEB60180E290E00E94D0042A94F6CF05
:10096000F6018681978102C08FEF9FEF2B96E2E11F
:100970000C94E105FC010590615070400110D8F71E
:10098000809590958E0F9F1F0895FC0161507040D7
:1009900001900110D8F7809590958E0F9F1F0895B4
:1009A0000F931F93CF93DF93FB01238121FD03C09E
:1009B0008FEF9FEF2CC022FF16C046815781248104
:1009C00035814217530744F4A081B1819D012F5F07
:1009D0003F4F318320838C93268137812F5F3F4F98
:1009E0003783268314C08B01EC01FB010084F18561
:1009F000E02D0995892BE1F6D80116968D919C91F1
:100A00001797019617969C938E931697CE01DF91B8
:100A1000CF911F910F910895FA01AA27283051F123
:100A2000203181F1E8946F936E7F6E5F7F4F8F4F1F
:100A30009F4FAF4FB1E03ED0B4E03CD0670F781F7E
:100A4000891F9A1FA11D680F791F8A1F911DA11D63
:100A50006A0F711D811D911DA11D20D009F468949C
:100A60003F912AE0269F11243019305D3193DEF644
:100A7000CF010895462F4770405D4193B3E00FD0FA
:100A8000C9F7F6CF462F4F70405D4A3318F0495DE5
:100A900031FD4052419302D0A9F7EACFB4E0A695C8
:100AA0009795879577956795BA95C9F700976105EA
:100AB000710508959B01AC010A2E06945795479540
:100AC00037952795BA95C9F7620F731F841F951F35
:100AD000A01D0895A8E1B0E042E050E00C94770535
:100AE0000E948505272F0C948605DC01CB01FC01B3
:100AF000F999FECF06C0F2BDE1BDF89A319600B477
:100B00000D9241505040B8F70895262FF999FECF25
:100B10001FBA92BD81BD20BD0FB6F894FA9AF99A1A
:100B20000FBE01960895052E97FB1EF400940E94B7
:100B3000AA0557FD07D00E94FC0507FC03D04EF420
:100B40000C94AA0550954095309521953F4F4F4FF5
:100B50005F4F089590958095709561957F4F8F4F69
:100B60009F4F08950E941E06A59F900DB49F900D63
:100B7000A49F800D911D11240895B7FF0C94B20518
:100B80000E94B205821B930B08952F923F924F92C1
:100B90005F926F927F928F929F92AF92BF92CF920D
:100BA000DF92EF92FF920F931F93CF93DF93CDB716
:100BB000DEB7CA1BDB0B0FB6F894DEBF0FBECDBF8E
:100BC00009942A88398848885F846E847D848C845F
:100BD0009B84AA84B984C884DF80EE80FD800C8168
:100BE0001B81AA81B981CE0FD11D0FB6F894DEBF4B
:100BF0000FBECDBFED010895A1E21A2EAA1BBB1BAB
:100C0000FD010DC0AA1FBB1FEE1FFF1FA217B307D8
:100C1000E407F50720F0A21BB30BE40BF50B661FEE
:100C2000771F881F991F1A9469F7609570958095B2
:100C300090959B01AC01BD01CF010895A29FB00129
:100C4000B39FC001A39F700D811D1124911DB29F00
:0E0C5000700D811D1124911D0895F894FFCFA1
:100C5E0001000000012575206C6F61646564210040
:0E0C6E002575002575207361766564210000F0
:00000001FF
