:100000000C9434000C9449000C9449000C94490061
:100010000C9449000C9449000C9449000C9449003C
:100020000C9449000C9449000C9449000C9449002C
:100030000C9449000C9449000C9449000C9449001C
:100040000C9449000C9449000C9449000C9449000C
:100050000C9449000C9449000C9449000C944900FC
:100060000C9449000C94490011241FBECFEFD8E036
:10007000DEBFCDBF11E0A0E0B1E0ECECFCE002C0DF
:1000800005900D92A833B107D9F70E941F010C9477
:1000900064060C94000088B1846088B900C088B1FF
:1000A0008B7F88B90895CF93C82F8AB1806F8AB9A2
:1000B00088B18D7F88B9662321F088B1816088B9C5
:1000C00003C088B18E7F88B98BB18F709C2F907FD1
:1000D000892B8BB90E944B002BB130E1C39FC0012B
:1000E0001124922F9F70892B8BB90E944B008BB1EA
:1000F000806F8BB9CF910895882321F088B18160FA
:1001000088B903C088B18E7F88B988B1826088B908
:100110008AB18F708AB988B1846088B900C029B16A
:1001200088B18B7F88B900C088B1846088B900C06D
:1001300099B188B18B7F88B9207F892F82958F7084
:10014000822B089580E00E947C008823DCF380E00D
:100150000E947C000895CF93C82F0E94A20060E007
:100160008C2F0E945300CF910895803410F480E4C6
:1001700001C080E080580E94AB00089581E00E9499
:10018000AB000895CF93C82F0E94A200CA3019F483
:100190000E94B50004C061E08C2F0E945300CF91F3
:1001A0000895CF93DF93FC0103C00E94C200FE01BB
:1001B000EF01219680818111F8CFDF91CF910895D1
:1001C000CF93C82F8AB1806F8AB987B1816087B910
:1001D00088B18E7F88B987B1826087B988B18D7FF9
:1001E00088B987B1846087B988B18B7F88B98BB1B2
:1001F0008F7080638BB90E944B008BB18F708063CE
:100200008BB90E944B008BB18F7080638BB90E94B9
:100210004B008BB18F7080628BB90E944B0088E2DB
:100220000E94AB0088E00E94AB000E94BE0086E006
:100230000E94AB008C2F0E94AB00CF910895CF930A
:10024000DF93CDB7DEB7E5970FB6F894DEBF0FBEEC
:10025000CDBF8CE00E94E00080E091E00E94D100E0
:100260002FEF80E792E0215080409040E1F700C0FE
:1002700000000E946D032FEF89E698E12150804035
:100280009040E1F700C000000E94D7010E94BE002C
:100290008CE091E00E94D100BE016F5D7F4F86E24D
:1002A0000E94FC02F82E1F928F9386E191E09F93AB
:1002B0008F938E010F5E1F4F1F930F930E947A033F
:1002C000C8010E94D1000F900F900F900F900F90D7
:1002D0000F9021E0F21238C00E94BE0089E191E047
:1002E0000E94D1008FEF99E628E181509040204094
:1002F000E1F700C00000CE01C1960E9431038130B9
:1003000019F54DA93CA92BA99AA989A91F924F9328
:100310001F923F931F922F931F929F931F928F9331
:1003200088E291E09F938F93005111091F930F93DF
:100330000E947A030E94BE00C8010E94D1000FB63D
:10034000F894DEBF0FBECDBF9FEF29E688E1915044
:1003500020408040E1F700C000009ECFCF93C62F21
:1003600095B19B7F95B990E0880F991F8E770E9479
:1003700074038C2F0E94740385B1846085B9CF917A
:10038000089595B19B7F95B990E0880F991F8E775E
:1003900080680E94740380E00E94740395B19460A9
:1003A00095B908956FE081E00E94AE0108950E9422
:1003B000D2016DE88AE20E94AE016EE38BE20E94F8
:1003C000AE016EE18CE20E94AE0160E08DE20E941F
:1003D000AE0160E485E10E94AE016DE381E10E941F
:1003E000AE0184E10E94C101982F937029F4682F17
:1003F000636084E10E94AE0108954F925F926F9214
:100400007F928F929F92AF92BF92CF92DF92EF92A4
:10041000FF920F931F93CF93DF93D82F7B01C42FAD
:1004200059018C3029F08E3061F0912C812C10C054
:100430000F2EF0E39F2EF02D0F2EF7E78F2EF02DCD
:1004400007C06894992494F80F2EF2E18F2EF02DB6
:1004500084E00E94C101682F6F7784E00E94AE01A2
:100460008AE00E94C101682F60688AE00E94AE01A4
:1004700060E081E00E94AE01412C512C32010CC0A1
:10048000F701E40DF51D608189E00E94AE018FEF58
:10049000481A580A680A780A8C2F90E0A0E0B0E069
:1004A000481659066A067B0658F36D2F81E00E94B4
:1004B000AE01DC3041F48DE00E94C101682F60681C
:1004C0008DE00E94AE010F2EF0EDCF2EF7E0DF2E73
:1004D000E12CF12CF02D84E00E94C101C82FE1E055
:1004E000CE1AD108E108F10829F080FD03C0892D5A
:1004F0008C2389F38DE00E94C101682F6F778DE016
:100500000E94AE01CD28CE28CF2809F460C086E035
:100510000E94C1018B7109F05CC0C821C0FD02C0FE
:10052000C1E001C0C2E0DC3009F054C08AE00E94A2
:10053000C101D82F8CE00E94C101282F2770A9F09B
:100540008D2F90E00197880F991F880F991F880FB2
:10055000991F820F911D092E000CAA0BBB0BF801ED
:1005600080839183A283B38311C08D2F90E0880F85
:10057000991F880F991F880F991F092E000CAA0B2D
:10058000BB0BF80180839183A283B383D11101C097
:10059000D1E0D13108F0D0E1C12CD12C76010DC0D1
:1005A00085010C0D1D1D89E00E94C101F8018083A9
:1005B000FFEFCF1ADF0AEF0AFF0A8D2F90E0A0E0CD
:1005C000B0E0C816D906EA06FB0650F303C0C3E044
:1005D00001C0C3E08C2FDF91CF911F910F91FF904D
:1005E000EF90DF90CF90BF90AF909F908F907F90D3
:1005F0006F905F904F900895EF92FF920F931F932B
:10060000CF93DF9300D000D0CDB7DEB7182F7B019A
:1006100067E08DE00E94AE01F70110838E010F5F4D
:100620001F4F970141E0B7018CE00E94FD0181302E
:1006300051F449815A816B817C81403151056105BA
:10064000710519F403C083E001C083E00F900F909F
:100650000F900F90DF91CF911F910F91FF90EF902E
:100660000895EF92FF920F931F93CF93DF9300D0E3
:1006700000D0CDB7DEB77C0160E08DE00E94AE0116
:1006800083E9F701808380E281838E010F5F1F4F32
:10069000970142E0B7018CE00E94FD01813091F4A6
:1006A00007C0F701E90FF11D308123279F5F02C0CA
:1006B00020E090E09430A8F3F701E90FF11D90815C
:1006C000291383E00F900F900F900F90DF91CF913F
:1006D0001F910F91FF90EF90089584B18C6284B9BF
:1006E0008CB581658CBD08958EBD0DB407FEFDCF20
:1006F0008EB50895AEE0B0E0E0E8F3E00C943B0680
:100700000D891E8986E08C831A8309838FEF9FE70A
:100710009E838D83AE01475E5F4F6F89788DCE01DA
:1007200001960E949C03EF81F885E00FF11F108273
:100730002E96E4E00C945706ABE0B0E0E2EAF3E07A
:100740000C942D066C017B018A01FC011782168234
:10075000838181FFCCC1CE0101963C01F6019381DA
:10076000F70193FD859193FF81917F01882309F41F
:10077000BAC1853239F493FD859193FF81917F0150
:10078000853229F4B60190E00E949305E7CF912CC1
:10079000212C312CFFE1F315D8F08B3279F038F4AD
:1007A000803279F08332A1F4232D20611DC08D3277
:1007B00061F0803369F4232D216016C0832D82609F
:1007C000382EE32DE4603E2E2AC0F32DF8601DC0C4
:1007D00037FC2DC020ED280F2A3040F08E32B9F4BE
:1007E00036FC81C1232D2064322E19C036FE06C08E
:1007F0008AE0989E200D1124922E11C0EAE02E9ED0
:10080000200D1124222EF32DF0623F2E08C08C36CD
:1008100021F4832D8068382E02C0883641F4F70118
:1008200093FD859193FF81917F018111B3CF982F23
:100830009F7D9554933028F40C5F1F4F9FE399835D
:100840000DC0833631F0833771F0833509F059C01C
:1008500021C0F801808189830E5F1F4F8824839413
:10086000912C530113C02801F2E04F0E511CF801E6
:10087000A080B18036FE03C0692D70E002C06FEF2A
:100880007FEFC5010E9488054C018201F32DFF779F
:100890003F2E16C0280122E0420E511CF801A08014
:1008A000B18036FE03C0692D70E002C06FEF7FEFAC
:1008B000C5010E947D054C01F32DF0683F2E820199
:1008C00033FC1BC0822D90E088169906B0F4B60167
:1008D00080E290E00E9493052A94F4CFF50137FC62
:1008E000859137FE81915F01B60190E00E949305EA
:1008F00021102A9421E0821A91088114910471F741
:10090000E8C0843611F0893641F5F80137FE07C09A
:1009100060817181828193810C5F1F4F08C060816B
:100920007181072E000C880B990B0E5F1F4FF32D62
:10093000FF763F2E97FF09C0909580957095619541
:100940007F4F8F4F9F4FF0683F2E2AE030E0A3018A
:100950000E94CF05882E861845C0853731F4232D97
:100960002F7EB22E2AE030E025C0932D997FB92E3C
:100970008F36C1F018F4883579F0B5C0803719F09A
:10098000883721F0B0C0E92FE061BE2EB4FE0DC063
:10099000FB2DF460BF2E09C034FE0AC0292F26604B
:1009A000B22E06C028E030E005C020E130E002C0F1
:1009B00020E132E0F801B7FE07C0608171818281D9
:1009C00093810C5F1F4F06C06081718180E090E0D1
:1009D0000E5F1F4FA3010E94CF05882E8618FB2DA6
:1009E000FF773F2E36FE0DC0232D2E7FA22E8914B9
:1009F00058F434FE0BC032FC09C0832D8E7EA82E25
:100A000005C0B82CA32C03C0B82C01C0B92CA4FE7F
:100A10000FC0FE01E80DF11D8081803321F49A2D75
:100A2000997EA92E09C0A2FE06C0B394B39404C057
:100A30008A2D867809F0B394A3FC11C0A0FE06C0ED
:100A4000B21488F4280C922C9B180EC0B21460F4D7
:100A5000B60180E290E00E949305B394F7CFB21400
:100A600018F42B1802C0982C212CA4FE10C0B6013B
:100A700080E390E00E949305A2FE17C0A1FC03C092
:100A800088E790E002C088E590E0B6010CC08A2DAE
:100A9000867859F0A1FE02C08BE201C080E2A7FC7B
:100AA0008DE2B60190E00E949305891438F4B601F6
:100AB00080E390E00E9493059A94F7CF8A94F30123
:100AC000E80DF11D8081B60190E00E949305811030
:100AD000F5CF222009F442CEB60180E290E00E94D8
:100AE00093052A94F6CFF6018681978102C08FEF95
:100AF0009FEF2B96E2E10C944906FC0105906150B2
:100B000070400110D8F7809590958E0F9F1F089523
:100B1000FC016150704001900110D8F780959095CC
:100B20008E0F9F1F08950F931F93CF93DF93FB01A9
:100B3000238121FD03C08FEF9FEF2CC022FF16C041
:100B400046815781248135814217530744F4A0819F
:100B5000B1819D012F5F3F4F318320838C9326818C
:100B600037812F5F3F4F3783268314C08B01EC0101
:100B7000FB010084F185E02D0995892BE1F6D80170
:100B800016968D919C911797019617969C938E932C
:100B90001697CE01DF91CF911F910F910895FA0121
:100BA000AA27283051F1203181F1E8946F936E7FAC
:100BB0006E5F7F4F8F4F9F4FAF4FB1E03ED0B4E09D
:100BC0003CD0670F781F891F9A1FA11D680F791FDE
:100BD0008A1F911DA11D6A0F711D811D911DA11DEF
:100BE00020D009F468943F912AE0269F11243019FF
:100BF000305D3193DEF6CF010895462F4770405D9A
:100C00004193B3E00FD0C9F7F6CF462F4F70405D48
:100C10004A3318F0495D31FD4052419302D0A9F7A3
:100C2000EACFB4E0A6959795879577956795BA959D
:100C3000C9F700976105710508959B01AC010A2E63
:100C400006945795479537952795BA95C9F7620F3A
:100C5000731F841F951FA01D08952F923F924F92DE
:100C60005F926F927F928F929F92AF92BF92CF923C
:100C7000DF92EF92FF920F931F93CF93DF93CDB745
:100C8000DEB7CA1BDB0B0FB6F894DEBF0FBECDBFBD
:100C900009942A88398848885F846E847D848C848E
:100CA0009B84AA84B984C884DF80EE80FD800C8197
:100CB0001B81AA81B981CE0FD11D0FB6F894DEBF7A
:0C0CC0000FBECDBFED010895F894FFCFEA
:100CCC007374617274696E672E2E2E007265616486
:100CDC0079202E2E2E00257500666F756E642063AC
:100CEC00617264202E2E2E0049443A202558255836
:080CFC00255825582558000079
:00000001FF
