:100000000C9434000C94F0010C9411020C945100E7
:100010000C9451000C9451000C9451000C9451001C
:100020000C9451000C9451000C9451000C9450010C
:100030000C9451000C9451000C9451000C945100FC
:100040000C9451000C9451000C9462020C945100D9
:100050000C9451000C9434020C9451000C945100F7
:100060000C9451000C94510011241FBECFEFD8E026
:10007000DEBFCDBF11E0A0E0B1E0EEE1F5E002C0EF
:1000800005900D92A430B107D9F721E0A4E0B1E0CA
:1000900001C01D92A630B207E1F70E9418010C942E
:1000A0008D020C94000088B1846088B900C088B1CA
:1000B0008B7F88B90895CF93C82F8AB1806F8AB992
:1000C00088B18D7F88B9662321F088B1816088B9B5
:1000D00003C088B18E7F88B98BB18F709C2F907FC1
:1000E000892B8BB90E9453002BB130E1C39FC00113
:1000F0001124922F9F70892B8BB90E9453008BB1D2
:10010000806F8BB9CF910895882321F088B18160E9
:1001100088B903C088B18E7F88B988B1826088B9F8
:100120008AB18F708AB988B1846088B900C029B15A
:1001300088B18B7F88B900C088B1846088B900C05D
:1001400099B188B18B7F88B9207F892F82958F7074
:10015000822B089580E00E9484008823DCF380E0F5
:100160000E9484000895CF93C82F0E94AA0060E0E7
:100170008C2F0E945B00CF910895803410F480E4AE
:1001800001C080E080580E94B300089581E00E9481
:10019000B3000895CF93C82F0E94AA00CA3019F463
:1001A0000E94BD0004C061E08C2F0E945B00CF91D3
:1001B0000895CF93C82F8AB1806F8AB987B18160C3
:1001C00087B988B18E7F88B987B1826087B988B1D5
:1001D0008D7F88B987B1846087B988B18B7F88B9F2
:1001E0008BB18F7080638BB90E9453008BB18F707D
:1001F00080638BB90E9453008BB18F7080638BB981
:100200000E9453008BB18F7080628BB90E945300A3
:1002100088E20E94B30088E00E94B3000E94C600FA
:1002200086E00E94B3008C2F0E94B300CF91089506
:1002300084B1836084B98CE00E94D90087E690E0A5
:100240009093C5008093C400E1ECF0E08081806968
:100250008083E2ECF0E0808186608083ECE7F0E070
:10026000808185648083EAE7F0E08081876880830D
:100270008081886080838BB18C608BB98DB3836003
:100280008DBBA0E8B0E08C9188608C93AFE6B0E0C5
:100290008C9182608C937894808180648083FFCF7E
:1002A0001F920F920FB60F9211242F933F934F93EB
:1002B0005F936F937F938F939F93AF93BF93EF93CE
:1002C000FF938091020190910301892BE9F18091C4
:1002D000000190910101089701F58CE70E94CA0086
:1002E0008CE70E94CA0085B1816085B985B18D7F98
:1002F00085B921E030E03093050120930401E1E865
:10030000F0E080818B7F80831092850010928400C2
:10031000309301012093000152C08091000190911F
:1003200001010196909301018093000180910401E5
:1003300090910501892B09F042C08CE70E94CA0008
:100340008CE70E94CA003BC080910001909101019E
:10035000089701F588E10E94B30088E10E94B3008C
:1003600085B1826085B985B18E7F85B9109205010E
:1003700010920401E1E8F0E080818B7F808310928D
:1003800085001092840081E090E0909301018093B9
:10039000000115C080910001909101010196909398
:1003A0000101809300018091040190910501892B46
:1003B00031F088E10E94B30088E10E94B300FF9110
:1003C000EF91BF91AF919F918F917F916F915F91CD
:1003D0004F913F912F910F900FBE0F901F90189546
:1003E0001F920F920FB60F9211248F939F93EF934A
:1003F000FF93109203011092020184E294EF909314
:10040000890080938800E1E8F0E080818460808347
:10041000FF91EF919F918F910F900FBE0F901F90C2
:1004200018951F920F920FB60F9211248F939F93DE
:10043000EF93FF9381E090E090930301809302019A
:1004400084E294EF9093890080938800E1E8F0E0E3
:10045000808184608083FF91EF919F918F910F90B5
:100460000FBE0F901F9018951F920F920FB60F920C
:1004700011248F939F93EF93FF93809104019091A8
:100480000501019789F48091780090917900843674
:10049000910550F485B1826085B985B18E7F85B9AB
:1004A0001092050110920401EAE7F0E08081806477
:1004B0008083FF91EF919F918F910F900FBE0F90CE
:1004C0001F9018951F920F920FB60F9211248F93C1
:1004D0009F938091C600843659F485B1826085B9B6
:1004E00085B18E7F85B910920501109204010EC06E
:1004F000853761F485B1816085B985B18D7F85B916
:1005000081E090E090930501809304019F918F9189
:0E0510000F900FBE0F901F901895F894FFCF1C
:04051E0001000100D7
:00000001FF
