S0160000554530365F52656D6F746550574D2E737265634F
S11300000C9452000C946F000C946F000C946F00CD
S11300100C946F000C946F000C946F000C946F00A0
S11300200C946F000C946F000C946F000C946F0090
S11300300C946F000C946F000C946F000C946F0080
S11300400C946F000C946F000C9492020C94C002F8
S11300500C946F000C946F000C946F000C946F0060
S11300600C946F000C946F004E414E494E49545904
S1130070494E46CDCCCC3D0AD7233C17B7D138776F
S1130080CC2B329595E6241FB14F0A000020410085
S113009000C84200401C4620BCBE4CCA1B0E5AAECF
S11300A0C59D740011241FBECFEFD8E0DEBFCDBFC5
S11300B011E0A0E0B1E0E0E0F3E102C005900D92B0
S11300C0AC31B107D9F721E0ACE1B1E001C01D9238
S11300D0A336B207E1F70E94FC010C947E090C944C
S11300E0000088B1816088B9000088B18E7F88B92A
S11300F00895CF93C82F662321F088B1846088B90E
S113010003C088B18B7F88B988B18D7F88B98AB1E3
S113011080618AB98AB180628AB98AB180648AB9F5
S11301208AB180688AB98BB18F778BB98BB18F7B99
S11301308BB98BB18F7D8BB98BB18F7E8BB9CC236F
S11301401CF48BB180688BB9C6FF03C08BB180648B
S11301508BB9C5FF03C08BB180628BB9C4FF03C0E8
S11301608BB180618BB90E9471008BB18F778BB991
S11301708BB18F7B8BB98BB18F7D8BB98BB18F7E1C
S11301808BB9C3FF03C08BB180688BB9C2FF03C0B6
S11301908BB180648BB9C1FF03C08BB180628BB912
S11301A0C0FF03C08BB180618BB90E9471008BB119
S11301B080618BB98BB180628BB98BB180648BB950
S11301C08BB180688BB9CF910895882321F088B1D1
S11301D0846088B903C088B18B7F88B988B1826094
S11301E088B98AB18F7E8AB98AB18F7D8AB98AB17A
S11301F08F7B8AB98AB18F778AB988B1816088B9CF
S113020000004C9902C080E001C080E14D998062F9
S11302104E9980644F99806898B19E7F98B9000088
S113022098B1916098B900004C9981604D998260B1
S11302304E9984604F99886098B19E7F98B90895CB
S113024080E00E94E5008823DCF300C000C080E069
S11302500E94E5000895CF93C82F0E94200160E01A
S11302608C2F0E947900CF91089581E00E942B0188
S11302700895CF93C82F0E942001CA3049F48034D6
S113028010F480E401C080E080580E942B0104C077
S113029061E08C2F0E947900CF910895CF93DF9372
S11302A0FC0103C00E943901FE01EF012196808107
S11302B08111F8CFDF91CF910895CF93C82F87B1E3
S11302C0846087B987B1826087B987B1816087B953
S11302D08AB180618AB98AB180628AB98AB180643C
S11302E08AB98AB180688AB98FE99FE00197F1F7EA
S11302F000C000008BB180628BB98BB180618BB977
S11303000E94710081EE94E00197F1F700C00000B3
S11303100E94710095E19A95F1F700000E94710026
S113032085E18A95F1F700008BB18F7E8BB90E942D
S1130330710095E19A95F1F7000088E20E942B0183
S113034088E00E942B010E94350186E00E942B0167
S11303508C2F0E942B01CF910895E0E8F0E080817A
S113036082608083A1E8B0E08C9188618C938CE7F3
S113037090E0909387008093860084B1826084B972
S11303808C9183608C9380818068808308950F931F
S11303901F93CF93DF938C01C0E0D0E012C00E9482
S11303A0050390FD0EC094FD12C093FD13C091FD92
S11303B014C083309105A1F0F801EC0FFD1F808378
S11303C02196CA30D1055CF380E090E00BC08FEF3A
S11303D09FEF08C08FEF9FEF05C08FEF9FEF02C024
S11303E08FEF9FEFDF91CF911F910F9108950E949E
S11303F005030297E1F70895CF93DF93CDB7DEB7F6
S113040065970FB6F894DEBF0FBECDBF8CE00E9497
S11304105D0187E690E00E94EA020E94AD017894B3
S11304208E010F5F1F4F8BE0F80111928A95E9F757
S11304300E94350180E091E00E944E010E94F70184
S1130440C8010E94C701892B09F062C00E943501CE
S11304508AE091E00E944E0186E00E942303CE01CF
S113046006960E94C7046B017C010E94AA037F9335
S11304706F9388E191E09F938F93055F1F4F1F93C4
S11304800F930E94CB04C8010E944E010F900F905D
S11304900F900F900F900F9020E030E0A901C7015A
S11304A0B6010E94A50388236CF011E020E030E03F
S11304B048EC52E4C701B6010E94550418161CF01A
S11304C010E001C010E011111AC020E030E0A901D1
S11304D0C701B6010E94A5038823A4F020E030E000
S11304E040EA5FE3C701B6010E945A0420E030E00D
S11304F040E85FE30E9439030E94AA0305C06EE747
S113050070E002C061E070E070938900609388003D
S1130510FFEF27EA81E6F15020408040E1F700C078
S113052000007ECF1F920F920FB60F9211242F93CB
S11305308F939F93EF93FF938091C0002091C60007
S11305408C71E0911E01EF5FEF7190911D01E9172D
S113055039F0E0931E01F0E0EF5DFE4F208301C00F
S113056082E090911C01892B80931C01FF91EF91F3
S11305709F918F912F910F900FBE0F901F90189500
S11305801F920F920FB60F9211248F939F93EF93A4
S1130590FF939091200180911F01981769F0E091D9
S11305A01F01EF5FEF71E0931F01F0E0EF5BFE4F7F
S11305B080818093C60005C0E1ECF0E080818F7DEE
S11305C08083FF91EF919F918F910F900FBE0F90B9
S11305D01F9018951092200110921F0110921E0175
S11305E010921D01282F392F33231CF422E020936D
S11305F0C00090789093C5008093C40088E98093EC
S1130600C10086E08093C200089590911E018091FC
S11306101D019817A9F090911D019F5F9F71E92F0B
S1130620F0E0EF5DFE4F208180911C0190931D014D
S113063010921C0190E0982F8827820F911D089535
S113064080E091E00895209120012F5F2F71909117
S11306501F012917E1F3E22FF0E0EF5BFE4F8083E7
S113066020932001E1ECF0E0808180628083089592
S11306705058BB27AA270E9450030C941B040E94C5
S11306800D0438F00E94140420F039F49F3F19F44B
S113069026F40C940A040EF4E095E7FB0C9404048D
S11306A0E92F0E942C0458F3BA17620773078407D2
S11306B0950720F079F4A6F50C944E040EF4E09519
S11306C00B2EBA2FA02D0B01B90190010C01CA0108
S11306D0A0011124FF27591B99F0593F50F4503EB3
S11306E068F11A16F040A22F232F342F4427585FA5
S11306F0F3CF469537952795A795F0405395C9F7BD
S11307007EF41F16BA0B620B730B840BBAF0915074
S1130710A1F0FF0FBB1F661F771F881FC2F70EC013
S1130720BA0F621F731F841F48F4879577956795E6
S1130730B795F7959E3F08F0B0CF9395880F08F0D2
S11307409927EE0F9795879508950E94E00308F482
S113075081E008950E94B1036894B1110C944F0490
S113076008950E94340488F09F5798F0B92F992770
S1130770B751B0F0E1F0660F771F881F991F1AF088
S1130780BA95C9F714C0B13091F00E944E04B1E09B
S113079008950C944E04672F782F8827B85F39F09A
S11307A0B93FCCF3869577956795B395D9F73EF421
S11307B090958095709561957F4F8F4F9F4F0895C9
S11307C0990F0008550FAA0BE0E8FEEF161617065E
S11307D0E807F907C0F012161306E407F50798F0C6
S11307E0621B730B840B950B39F40A2661F0232BDF
S11307F0242B252B21F408950A2609F4A140A6955B
S11308008FEF811D811D089597F99F6780E870E03F
S113081060E008959FEF80EC089500240A94161672
S1130820170618060906089500240A9412161306DA
S1130830140605060895092E0394000C11F4882368
S113084052F0BB0F40F4BF2B11F460FF04C06F5F84
S11308507F4F8F4F9F4F089557FD9058440F551F5A
S113086059F05F3F71F04795880F97FB991F61F02E
S11308709F3F79F087950895121613061406551FA5
S1130880F2CF4695F1DF08C0161617061806991F11
S1130890F1CF86957105610508940895E894BB2706
S11308A066277727CB0197F908950E94E00308F49F
S11308B08FEF08950E946D040C941B040E940D0494
S11308C038F00E94140420F0952311F00C940404D1
S11308D00C940A0411240C944F040E942C0470F309
S11308E0959FC1F3950F50E0551F629FF001729FD1
S11308F0BB27F00DB11D639FAA27F00DB11DAA1FE0
S1130900649F6627B00DA11D661F829F2227B00D2C
S1130910A11D621F739FB00DA11D621F839FA00DB7
S1130920611D221F749F3327A00D611D231F849F07
S1130930600D211D822F762F6A2F11249F5750405E
S11309409AF0F1F088234AF0EE0FFF1FBB1F661FD9
S1130950771F881F91505040A9F79E3F510580F0A2
S11309600C9404040C944F045F3FE4F3983ED4F3D6
S1130970869577956795B795F795E7959F5FC1F746
S1130980FE2B880F911D9695879597F908956627F4
S113099077270C94CE06AEE0B0E0E1EDF4E00C94E1
S11309A046090D891E8986E08C831A8309838FEF9B
S11309B09FE79E838D83AE01475E5F4F6F89788D7D
S11309C0CE0101960E94ED04EF81F885E00FF11F3E
S11309D010822E96E4E00C946209ABE0B0E0E3EF01
S11309E0F4E00C9438096C017B018A01FC01178244
S11309F01682838181FFCCC1CE0101963C01F601B0
S1130A009381F70193FD859193FF81917F01882361
S1130A1009F4BAC1853239F493FD859193FF81912C
S1130A207F01853229F4B60190E00E945308E7CF94
S1130A30912C212C312CFFE1F315D8F08B3279F075
S1130A4038F4803279F08332A1F4232D20611DC063
S1130A508D3261F0803369F4232D216016C0832D1B
S1130A608260382EE32DE4603E2E2AC0F32DF86018
S1130A701DC037FC2DC020ED280F2A3040F08E32E7
S1130A80B9F436FC81C1232D2064322E19C036FE00
S1130A9006C08AE0989E200D1124922E11C0EAE02F
S1130AA02E9E200D1124222EF32DF0623F2E08C01D
S1130AB08C3621F4832D8068382E02C0883641F4A8
S1130AC0F70193FD859193FF81917F018111B3CF4C
S1130AD0982F9F7D9554933028F40C5F1F4F9FE30C
S1130AE099830DC0833631F0833771F0833509F073
S1130AF059C021C0F801808189830E5F1F4F88246B
S1130B008394912C530113C02801F2E04F0E511C21
S1130B10F801A080B18036FE03C0692D70E002C0E8
S1130B206FEF7FEFC5010E9448084C018201F32D4D
S1130B30FF773F2E16C0280122E0420E511CF80117
S1130B40A080B18036FE03C0692D70E002C06FEF53
S1130B507FEFC5010E943D084C01F32DF0683F2E44
S1130B60820133FC1BC0822D90E088169906B0F4F4
S1130B70B60180E290E00E9453082A94F4CFF50174
S1130B8037FC859137FE81915F01B60190E00E94A8
S1130B90530821102A9421E0821A910881149104A7
S1130BA071F7E8C0843611F0893641F5F80137FE53
S1130BB007C060817181828193810C5F1F4F08C0DF
S1130BC060817181072E000C880B990B0E5F1F4FFB
S1130BD0F32DFF763F2E97FF09C090958095709571
S1130BE061957F4F8F4F9F4FF0683F2E2AE030E092
S1130BF0A3010E948F08882E861845C0853731F4DA
S1130C00232D2F7EB22E2AE030E025C0932D997F2C
S1130C10B92E8F36C1F018F4883579F0B5C0803715
S1130C2019F0883721F0B0C0E92FE061BE2EB4FE80
S1130C300DC0FB2DF460BF2E09C034FE0AC0292F5D
S1130C402660B22E06C028E030E005C020E130E086
S1130C5002C020E132E0F801B7FE07C06081718173
S1130C60828193810C5F1F4F06C06081718180E097
S1130C7090E00E5F1F4FA3010E948F08882E8618F4
S1130C80FB2DFF773F2E36FE0DC0232D2E7FA22E87
S1130C90891458F434FE0BC032FC09C0832D8E7EB7
S1130CA0A82E05C0B82CA32C03C0B82C01C0B92CA5
S1130CB0A4FE0FC0FE01E80DF11D8081803321F4F4
S1130CC09A2D997EA92E09C0A2FE06C0B394B394AE
S1130CD004C08A2D867809F0B394A3FC11C0A0FE49
S1130CE006C0B21488F4280C922C9B180EC0B214BF
S1130CF060F4B60180E290E00E945308B394F7CF09
S1130D00B21418F42B1802C0982C212CA4FE10C085
S1130D10B60180E390E00E945308A2FE17C0A1FC34
S1130D2003C088E790E002C088E590E0B6010CC0FB
S1130D308A2D867859F0A1FE02C08BE201C080E2C0
S1130D40A7FC8DE2B60190E00E945308891438F4A0
S1130D50B60180E390E00E9453089A94F7CF8A94F6
S1130D60F301E80DF11D8081B60190E00E94530863
S1130D708110F5CF222009F442CEB60180E290E042
S1130D800E9453082A94F6CFF6018681978102C007
S1130D908FEF9FEF2B96E2E10C945409A0E0B0E0B2
S1130DA0E4EDF6E00C943E09EC016B01611571056C
S1130DB019F0FB01918380837E01FFEFEF1AFF0A94
S1130DC00881802F90E00E941C08892B11F0E70114
S1130DD0F3CF0D3239F47E0182E0E80EF11C098173
S1130DE011E008C00B3229F47E0192E0E90EF11CF7
S1130DF0098110E0E701219743E050E060E770E0EB
S1130E00CE010E942508892BC1F4239645E050E0C9
S1130E106BE670E0CE010E942508892B09F4259623
S1130E20C114D10419F0F601D183C0831111F6C0A5
S1130E3060E070E080E89FE7FAC043E050E068E6D5
S1130E4070E0CE010E942508892B59F4C114D10405
S1130E5009F4E9C0F2E0EF0EF11CF601F182E08240
S1130E60E2C020E030E0A901C0E0D0E0F70180ED6D
S1130E70A82EA00E89E08A1530F1912F9260B92E28
S1130E80812F887012FF04C0811124C0219622C0D2
S1130E9081112197A5E0B0E00E942D09DC01CB016E
S1130EA0880F991FAA1FBB1F9C01AD012A0D311D7C
S1130EB0411D511D283989E93807480789E1580738
S1130EC048F0166006C09EEFA9120AC013FD40C088
S1130ED01860B12E8FEFE81AF80A00811B2DC6CFD7
S1130EE0802F8F7D8534A1F580818D3211F41061BE
S1130EF006C08B3221F0319661E070E004C081813C
S1130F00329662E070E080538A3018F0E61BF70BEB
S1130F101FC060E070E060389CE079075CF4DB019E
S1130F20AA0FBB1FAA0FBB1F6A0F7B1F660F771F79
S1130F30680F711D3196DF0111978C9180538A30AF
S1130F4050F314FF03C0719561957109C60FD71F43
S1130F5011FF08C0C114D10429F0CF010197F60193
S1130F6091838083CA01B9010E94ED08212F237067
S1130F70233019F04B015C0106C04B015C01B7FA48
S1130F80B094B7F8B09420E030E0A901C501B401F1
S1130F900E94A503882309F43EC0D7FF06C0D1955B
S1130FA0C195D10907E810E002C00FE910E068011B
S1130FB0F8E1CF1AD10890E2E92EF12CCE15DF0525
S1130FC074F0F8012591359145915491C501B4010E
S1130FD00E945A044B015C01CE19DF09EFCF045083
S1130FE01109F594E7940C151D0541F78A2D880F16
S1130FF08B2D881F8F3F49F020E030E0A901C50107
S1131000B4010E94A503811106C082E290E090938E
S1131010620180936101C501B40109C060E070E020
S113102080E89FEF04C060E070E080EC9FE7CDB7FC
S1131030DEB7ECE00C945A0991110C942A09803221
S113104019F089508550C8F70895FB01DC0141501F
S1131050504088F08D9181341CF08B350CF4805E07
S1131060659161341CF06B350CF4605E861B611174
S113107071F3990B0895881BFCCFFC010590615016
S113108070400110D8F7809590958E0F9F1F08959A
S1131090FC016150704001900110D8F78095909543
S11310A08E0F9F1F08950F931F93CF93DF93FB0120
S11310B0238121FD03C08FEF9FEF2CC022FF16C0B8
S11310C046815781248135814217530744F4A08116
S11310D0B1819D012F5F3F4F318320838C93268103
S11310E037812F5F3F4F3783268314C08B01EC0178
S11310F0FB010084F185E02D0995892BE1F6D801E7
S113110016968D919C911797019617969C938E93A2
S11311101697CE01DF91CF911F910F910895FA0197
S1131120AA27283051F1203181F1E8946F936E7F22
S11311306E5F7F4F8F4F9F4FAF4FB1E03ED0B4E013
S11311403CD0670F781F891F9A1FA11D680F791F54
S11311508A1F911DA11D6A0F711D811D911DA11D65
S113116020D009F468943F912AE0269F1124301975
S1131170305D3193DEF6CF010895462F4770405D10
S11311804193B3E00FD0C9F7F6CF462F4F70405DBF
S11311904A3318F0495D31FD4052419302D0A9F71A
S11311A0EACFB4E0A6959795879577956795BA9514
S11311B0C9F700976105710508959B01AC010A2EDA
S11311C006945795479537952795BA95C9F7620FB1
S11311D0731F841F951FA01D0895E89409C097FBF1
S11311E03EF490958095709561957F4F8F4F9F4FFA
S11311F09923A9F0F92F96E9BB279395F69587953E
S113120077956795B795F111F8CFFAF4BB0F11F400
S113121060FF1BC06F5F7F4F8F4F9F4F16C08823A7
S113122011F096E911C0772321F09EE8872F762FDD
S113123005C0662371F096E8862F70E060E02AF01E
S11312409A95660F771F881FDAF7880F969587950A
S113125097F908959927882708950E946F09A59FF3
S1131260900DB49F900DA49F800D911D112408959D
S11312702F923F924F925F926F927F928F929F92A2
S1131280AF92BF92CF92DF92EF92FF920F931F9390
S1131290CF93DF93CDB7DEB7CA1BDB0B0FB6F89441
S11312A0DEBF0FBECDBF09942A88398848885F8481
S11312B06E847D848C849B84AA84B984C884DF80F2
S11312C0EE80FD800C811B81AA81B981CE0FD11DD6
S11312D00FB6F894DEBF0FBECDBFED010895A29FF7
S11312E0B001B39FC001A39F700D811D1124911DF6
S11312F0B29F700D811D1124911D0895F894FFCFA4
S11313007265616479202E2E2E0072656164206DF1
S10F13106573736167650A0025690000BD
S9030000FC
