:100000000C9434000C9449000C9449000C94490061
:100010000C9449000C9449000C9449000C9449003C
:100020000C9449000C9449000C9449000C9449002C
:100030000C9449000C9449000C9449000C9449001C
:100040000C9449000C9449000C9449000C9449000C
:100050000C9449000C9449000C9449000C944900FC
:100060000C9449000C94490011241FBECFEFD8E036
:10007000DEBFCDBF11E0A0E0B1E0E2E5F2E002C0FA
:1000800005900D92A630B107D9F70E941F010C947C
:1000900027010C94000088B1846088B900C088B141
:1000A0008B7F88B90895CF93C82F8AB1806F8AB9A2
:1000B00088B18D7F88B9662321F088B1816088B9C5
:1000C00003C088B18E7F88B98BB18F709C2F907FD1
:1000D000892B8BB90E944B002BB130E1C39FC0012B
:1000E0001124922F9F70892B8BB90E944B008BB1EA
:1000F000806F8BB9CF910895882321F088B18160FA
:1001000088B903C088B18E7F88B988B1826088B908
:100110008AB18F708AB988B1846088B900C029B16A
:1001200088B18B7F88B900C088B1846088B900C06D
:1001300099B188B18B7F88B9207F892F82958F7084
:10014000822B089580E00E947C008823DCF380E00D
:100150000E947C000895CF93C82F0E94A20060E007
:100160008C2F0E945300CF910895803410F480E4C6
:1001700001C080E080580E94AB00089581E00E9499
:10018000AB000895CF93C82F0E94A200CA3019F483
:100190000E94B50004C061E08C2F0E945300CF91F3
:1001A0000895CF93DF93FC0103C00E94C200FE01BB
:1001B000EF01219680818111F8CFDF91CF910895D1
:1001C000CF93C82F8AB1806F8AB987B1816087B910
:1001D00088B18E7F88B987B1826087B988B18D7FF9
:1001E00088B987B1846087B988B18B7F88B98BB1B2
:1001F0008F7080638BB90E944B008BB18F708063CE
:100200008BB90E944B008BB18F7080638BB90E94B9
:100210004B008BB18F7080628BB90E944B0088E2DB
:100220000E94AB0088E00E94AB000E94BE0086E006
:100230000E94AB008C2F0E94AB00CF9108958CE000
:100240000E94E00080E091E00E94D100FFCFF8948E
:02025000FFCFDE
:06025200576F726B730090
:00000001FF
